{
  "contractName": "Lottery",
  "abi": [
    {
      "inputs": [],
      "stateMutability": "nonpayable",
      "type": "constructor"
    },
    {
      "inputs": [],
      "name": "claimed",
      "outputs": [
        {
          "internalType": "bool",
          "name": "",
          "type": "bool"
        }
      ],
      "stateMutability": "view",
      "type": "function",
      "constant": true
    },
    {
      "inputs": [],
      "name": "isComplete",
      "outputs": [
        {
          "internalType": "bool",
          "name": "",
          "type": "bool"
        }
      ],
      "stateMutability": "view",
      "type": "function",
      "constant": true
    },
    {
      "inputs": [],
      "name": "manager",
      "outputs": [
        {
          "internalType": "address",
          "name": "",
          "type": "address"
        }
      ],
      "stateMutability": "view",
      "type": "function",
      "constant": true
    },
    {
      "inputs": [
        {
          "internalType": "uint256",
          "name": "",
          "type": "uint256"
        }
      ],
      "name": "players",
      "outputs": [
        {
          "internalType": "address payable",
          "name": "",
          "type": "address"
        }
      ],
      "stateMutability": "view",
      "type": "function",
      "constant": true
    },
    {
      "inputs": [],
      "name": "getManager",
      "outputs": [
        {
          "internalType": "address",
          "name": "",
          "type": "address"
        }
      ],
      "stateMutability": "view",
      "type": "function",
      "constant": true
    },
    {
      "inputs": [],
      "name": "getWinner",
      "outputs": [
        {
          "internalType": "address",
          "name": "",
          "type": "address"
        }
      ],
      "stateMutability": "view",
      "type": "function",
      "constant": true
    },
    {
      "inputs": [],
      "name": "status",
      "outputs": [
        {
          "internalType": "bool",
          "name": "",
          "type": "bool"
        }
      ],
      "stateMutability": "view",
      "type": "function",
      "constant": true
    },
    {
      "inputs": [],
      "name": "enter",
      "outputs": [],
      "stateMutability": "payable",
      "type": "function",
      "payable": true
    },
    {
      "inputs": [],
      "name": "pickWinner",
      "outputs": [],
      "stateMutability": "nonpayable",
      "type": "function"
    },
    {
      "inputs": [],
      "name": "claimPrize",
      "outputs": [],
      "stateMutability": "nonpayable",
      "type": "function"
    },
    {
      "inputs": [],
      "name": "getPlayers",
      "outputs": [
        {
          "internalType": "address payable[]",
          "name": "",
          "type": "address[]"
        }
      ],
      "stateMutability": "view",
      "type": "function",
      "constant": true
    }
  ],
  "bytecode": "0x608060405234801561000f575f80fd5b50335f806101000a81548173ffffffffffffffffffffffffffffffffffffffff021916908373ffffffffffffffffffffffffffffffffffffffff1602179055505f600260146101000a81548160ff0219169083151502179055505f600260156101000a81548160ff0219169083151502179055506109a9806100905f395ff3fe60806040526004361061009b575f3560e01c80638e7ea5b2116100635780638e7ea5b214610149578063b2fa1c9e14610173578063d50095841461019d578063e834a834146101c7578063e97dcb62146101f1578063f71d96cb146101fb5761009b565b8063200d2ed21461009f578063481c6a75146100c95780635d495aea146100f357806370740ac9146101095780638b5b9ccc1461011f575b5f80fd5b3480156100aa575f80fd5b506100b3610237565b6040516100c091906106aa565b60405180910390f35b3480156100d4575f80fd5b506100dd61024d565b6040516100ea9190610702565b60405180910390f35b3480156100fe575f80fd5b50610107610270565b005b348015610114575f80fd5b5061011d61039d565b005b34801561012a575f80fd5b5061013361048f565b60405161014091906107e3565b60405180910390f35b348015610154575f80fd5b5061015d61051a565b60405161016a9190610702565b60405180910390f35b34801561017e575f80fd5b50610187610542565b60405161019491906106aa565b60405180910390f35b3480156101a8575f80fd5b506101b1610555565b6040516101be9190610702565b60405180910390f35b3480156101d2575f80fd5b506101db61057c565b6040516101e891906106aa565b60405180910390f35b6101f961058f565b005b348015610206575f80fd5b50610221600480360381019061021c919061083a565b61061d565b60405161022e9190610874565b60405180910390f35b5f600260149054906101000a900460ff16905090565b5f8054906101000a900473ffffffffffffffffffffffffffffffffffffffff1681565b5f8054906101000a900473ffffffffffffffffffffffffffffffffffffffff1673ffffffffffffffffffffffffffffffffffffffff163373ffffffffffffffffffffffffffffffffffffffff16146102c6575f80fd5b5f600180549050116102d6575f80fd5b600260149054906101000a900460ff16156102ef575f80fd5b600180805490506102fe610658565b61030891906108ba565b81548110610319576103186108ea565b5b905f5260205f20015f9054906101000a900473ffffffffffffffffffffffffffffffffffffffff1660025f6101000a81548173ffffffffffffffffffffffffffffffffffffffff021916908373ffffffffffffffffffffffffffffffffffffffff1602179055506001600260146101000a81548160ff021916908315150217905550565b60025f9054906101000a900473ffffffffffffffffffffffffffffffffffffffff1673ffffffffffffffffffffffffffffffffffffffff163373ffffffffffffffffffffffffffffffffffffffff16146103f5575f80fd5b600260149054906101000a900460ff1661040d575f80fd5b60025f9054906101000a900473ffffffffffffffffffffffffffffffffffffffff1673ffffffffffffffffffffffffffffffffffffffff166108fc4790811502906040515f60405180830381858888f19350505050158015610471573d5f803e3d5ffd5b506001600260156101000a81548160ff021916908315150217905550565b6060600180548060200260200160405190810160405280929190818152602001828054801561051057602002820191905f5260205f20905b815f9054906101000a900473ffffffffffffffffffffffffffffffffffffffff1673ffffffffffffffffffffffffffffffffffffffff16815260200190600101908083116104c7575b5050505050905090565b5f60025f9054906101000a900473ffffffffffffffffffffffffffffffffffffffff16905090565b600260149054906101000a900460ff1681565b5f805f9054906101000a900473ffffffffffffffffffffffffffffffffffffffff16905090565b600260159054906101000a900460ff1681565b66038d7ea4c680003410156105a2575f80fd5b600260149054906101000a900460ff16156105bb575f80fd5b600133908060018154018082558091505060019003905f5260205f20015f9091909190916101000a81548173ffffffffffffffffffffffffffffffffffffffff021916908373ffffffffffffffffffffffffffffffffffffffff160217905550565b6001818154811061062c575f80fd5b905f5260205f20015f915054906101000a900473ffffffffffffffffffffffffffffffffffffffff1681565b5f444260018054905060405160200161067393929190610937565b604051602081830303815290604052805190602001205f1c905090565b5f8115159050919050565b6106a481610690565b82525050565b5f6020820190506106bd5f83018461069b565b92915050565b5f73ffffffffffffffffffffffffffffffffffffffff82169050919050565b5f6106ec826106c3565b9050919050565b6106fc816106e2565b82525050565b5f6020820190506107155f8301846106f3565b92915050565b5f81519050919050565b5f82825260208201905092915050565b5f819050602082019050919050565b5f61074e826106c3565b9050919050565b61075e81610744565b82525050565b5f61076f8383610755565b60208301905092915050565b5f602082019050919050565b5f6107918261071b565b61079b8185610725565b93506107a683610735565b805f5b838110156107d65781516107bd8882610764565b97506107c88361077b565b9250506001810190506107a9565b5085935050505092915050565b5f6020820190508181035f8301526107fb8184610787565b905092915050565b5f80fd5b5f819050919050565b61081981610807565b8114610823575f80fd5b50565b5f8135905061083481610810565b92915050565b5f6020828403121561084f5761084e610803565b5b5f61085c84828501610826565b91505092915050565b61086e81610744565b82525050565b5f6020820190506108875f830184610865565b92915050565b7f4e487b71000000000000000000000000000000000000000000000000000000005f52601260045260245ffd5b5f6108c482610807565b91506108cf83610807565b9250826108df576108de61088d565b5b828206905092915050565b7f4e487b71000000000000000000000000000000000000000000000000000000005f52603260045260245ffd5b5f819050919050565b61093161092c82610807565b610917565b82525050565b5f6109428286610920565b6020820191506109528285610920565b6020820191506109628284610920565b60208201915081905094935050505056fea2646970667358221220315e45d24a7420c7c03569ff700393145ac03285ace5f5713f29bf0e71ea8ec964736f6c63430008150033",
  "immutableReferences": {},
  "source": "// SPDX-License-Identifier: MIT\npragma solidity ^0.8.0;\n\ncontract Lottery {\n    address public manager;\n    address payable[] public players;\n    address payable winner;\n    bool public isComplete;\n    bool public claimed;\n    \n    constructor() {\n        manager = msg.sender;\n        isComplete = false;\n        claimed = false;\n    }\n\n    modifier restricted() {\n        require(msg.sender == manager);\n        _;\n    }\n\n    function getManager() public view returns (address) {\n        return manager;\n    }\n\n    function getWinner() public view returns (address) {\n        return winner;\n    }\n\n    function status() public view returns (bool) {\n        return isComplete;\n    }\n    \n    function enter() public payable {\n        require(msg.value >= 0.001 ether);\n        require(!isComplete);\n        players.push(payable(msg.sender));\n    }\n    \n    function pickWinner() public restricted {\n        require(players.length > 0);\n        require(!isComplete);\n        winner = players[randomNumber() % players.length];\n        isComplete = true;\n    }\n    \n    function claimPrize() public {\n        require(msg.sender == winner);\n        require(isComplete);\n        winner.transfer(address(this).balance);\n        claimed = true;\n    }\n    \n    function getPlayers() public view returns (address payable[] memory) {\n        return players;\n    }\n    \n    \n    \n    function randomNumber() private view returns (uint) {\n        return uint(keccak256(abi.encodePacked(block.prevrandao, block.timestamp, players.length)));\n    }\n}\n",
  "sourcePath": "C:\\Users\\diclo\\Desktop\\Web3-Lottery-Dapp-ReactJS-main\\my_lottery_app\\contracts\\Lottery.sol",
  "compiler": {
    "name": "solc",
    "version": "0.8.21+commit.d9974bed.Emscripten.clang"
  },
  "schemaVersion": "3.4.16",
  "updatedAt": "2024-05-24T13:00:52.023Z",
  "networkType": "ethereum",
  "devdoc": {
    "kind": "dev",
    "methods": {},
    "version": 1
  },
  "userdoc": {
    "kind": "user",
    "methods": {},
    "version": 1
  }
}